:020000001028C6
:10000800FE00030EF6000408F7000A08F800831241
:1000180003137F08F900612A11287A3084007E30A2
:10002800032383132030840037300323FA22C600C9
:10003800FB22C700FC22C800FD22C900FE22CA001C
:10004800FF22CB000023CC000123CD000223CE00E9
:1000580083012E28D021DD288511B4010030D72254
:10006800003A03193928033050280130D722003AC2
:1000780003194028043050280030C822003A0319D8
:100088004A2883120313B601B60AD6280130C822BB
:10009800003A0319532802308312031367280230E9
:1000A800D722003A0319D628103083120313C00050
:1000B8002730C1009E228312031385150A30C4001D
:1000C8004408D3000530C4004408B600D628851576
:1000D8000030D722003A0319D628831203133408B4
:1000E800C400C5014408CF004508D0004F08C4002B
:1000F8004408B70033088422D32885150130D72255
:10010800003A0319D628831203133408C400C50122
:100118004408D1004508D2005108C4004408B7007B
:100128004E088422D32885153408C400C501450823
:100138005002031DA12844084F02031CB6010030D9
:10014800CF2885153408C400C50145085202031D8F
:10015800AF2844085102031CB6010130CF283508E6
:100168000319CB288519C1281030C0002730C100D9
:100178009E22831203138515CB280130D302D03079
:10018800C0000730C1009E22831203138511530853
:100198000319B6010230D722003A0319D628831270
:1001A8000313B601033083120313B7000030B800FD
:1001B800152283120313360884000630040203183C
:1001C800D52803308A00133004078200D628F401AA
:1001D800033074020318080074087A3E840000088B
:1001E800F0007408263E84007008831380007408A9
:1001F800493E84000008831203130505F0007408C3
:100208007A3E8400700880007408263E8400000846
:10021800F00074087A3E840000087006031D7029F7
:1002280074087A3E84000008F0007408463E840092
:10023800700880007408463E84000008031D4629A3
:100248007408F0007007203E84000008F100840A5A
:100258000008F20000307202C83003197102031856
:1002680040297408F0007007203E840001308007A0
:10027800840A0318800A702974082C3E84008001BF
:10028800800A7029F3017408F0007007203E84008A
:100298000008F100840A0008F200710872040319CA
:1002A8005D2974082C3E84000008031D5D29F301B4
:1002B800F30A7308F0007408293E8400700880006F
:1002C8007408F0007007203E84008001840A8001D1
:1002D80074082C3E840080010130F0007008F40797
:1002E800EC2883120313BD01B81F8129B709B80987
:1002F800B70A0319B80ABD01BD0ABA1F8C29B90982
:10030800BA09B90A0319BA0A0130BB003B08BD068D
:10031800BE01BF01370838040319C329BC01BC0A50
:10032800B81BA22901300310B70DB80DFF3E031DFD
:1003380097290130BB003B08BC0794290130031002
:10034800BE0DBF0DFF3E031DA32938083A02031D49
:10035800AF2937083902031CB8293708B902380809
:10036800031CBA03BA023E1401300310B80CB70CD0
:10037800FF3E031DB9290130BC02031DA2293D0817
:100388000319CB29BE09BF09BE0A0319BF0A3F08D2
:10039800B8003E08B70008000730831203139F0017
:1003A8003430831603138500FF308312031385004E
:1003B8000130831603138600831203138601B401E8
:1003C8000A30C2004208D300B60183160313811312
:1003D80001170B16831203133308F0228312031339
:1003E800C200C3014208CF004308D0004E08F022E3
:1003F80083120313C200C3014208D1004308D2008C
:100408000030E622103083120313B7002730B800FB
:100418003E22E83083120313C0000330C1009E223D
:10042800080083120313B901BA0138083A02031D00
:100438001F2A3708390203180800BB01BC01003025
:100448003C028D3003193B020318372A0130BB07E1
:100458000318BC0A0030BC0700303C028D30031979
:100468003B02031C2A2A0130B9070318BA0A0030D4
:10047800BA07192A8312031310103709B90038096B
:10048800BA00B90A0319BA0A3908FF3EB1003A0896
:100498000318013EFF3EB20032088F0031088E007B
:1004A8009010101290120C10831603130C148B1753
:1004B8000B1783120313101408000C1C6E2A8316E2
:1004C80003130C1C6E2A1923831203130C100B231D
:1004D800B322EB208B1C772A8B100130F5007508AE
:1004E80083120313B407790883120313FF007808F3
:1004F8008A0077088400760E8300FE0E7E0E0900BF
:1005080083120313B8003808831603139B00831261
:1005180003133708831603139A001C158B135530E1
:100528009D00AA309D009C148B1783128C1F992A5A
:100538008C1308000A3083120313B7000030B80088
:100548004108BA004008B90075218312031338081E
:10055800CD003708CC00AF01B001B501080001306B
:1005680083120313AF070318B00A0030B0074D0811
:100578003002031DC12A4C082F02031C0800AF01DA
:10058800B001B501B50A080083120313B7000330A0
:100598003702031CD12AFF30080037082C3E84009C
:1005A80083130008080083120313B70003303702CF
:1005B800031CE02A003008003708293E8400831312
:1005C8000008080083120313B7003708031DEE2A3A
:1005D800851108008515080083120313B700370832
:1005E800831603139B001C141A08080001340134F5
:1005F80001341034203404340134003401346400EC
:100608008001840A0406031900340406042B8312AB
:10061800031332088F0031088E00101408003028A8
:100628006B2881289728A528B32883120313101054
:020638000800B8
:08400000FF3FFF3FFF3FFF3FC0
:02400E0018FF99
:00000001FF
