:1000000080311D28E83403347E1480312000111C17
:100010000A280B281B282100111C0F2810281B2838
:100020008B31EB238031200011108C310224803180
:100030008C31A62480317E10090080311F28803148
:1000400002208031F800803103208031F9008B31AB
:10005000E9238031ED008B31EA238031EE00E2307C
:1000600084008D308500A030860000308700283065
:100070008B31FC238031F601F7014A3084000030D7
:10008000850021308B31F62380312100C801C90160
:10009000CA01CB017E1020008F31C72F262B2000F4
:1000A000A3017730A4009030A50000308731D62717
:1000B00080312000A3013330A4009030A50001302E
:1000C0008731D627803100308C31102480312000D8
:1000D000E901E90A4A2B03308C31BD248031003A12
:1000E000031973287428792801308C311024803149
:1000F0007D2800308C311024803101308C317A24FD
:100100008031003A0319852886284A2B2000A30154
:100110009930A4009030A50000308731D627803177
:100120002000A3010030A4009030A50001308731E9
:10013000D627803108302000AC007908AE0078085E
:10014000AD00003085313125803108302000C200FB
:100150006708C4006608C30001308331FB23803187
:1001600000308C311024803102302000E9004A2B0D
:100170004A2B03308C31BD248031003A0319C12849
:10018000C228E3282000A3014430A4009030A50039
:1001900000308731D62780312000A3011130A40020
:1001A0009030A50001308731D627803179082000B2
:1001B000E5007808E40001308C31102480310630ED
:1001C0002000E9004A2B01308C317A248031003A3A
:1001D0000319EB28EC2805292000A3017730A4009F
:1001E0009030A50000308731D62780312000A30150
:1001F0003330A4009030A50001308731D6278031FC
:1002000000308C3110248031672801308C31332448
:100210008031003A03190D290E2931292000A3014C
:100220008830A4009030A50000308731D627803177
:100230002000A3015530A4009030A5000130873183
:10024000D627803108302000AC007908AE0078084D
:10025000AD00003085313125803103302000E900C8
:100260004A2B02308C3133248031003A031939296A
:100270003A29B82800308C3133248031003A0319F0
:1002800042294329B8282000A3012230A40090303D
:10029000A50000308731D62780312000A3016630C9
:1002A000A4009030A50001308731D6278031073077
:1002B0002000E9004A2B00308C31BD248031003A07
:1002C0000319632964296929F60104302000E90033
:1002D0004A2B02308C31BD248031003A0319712938
:1002E00072297729F60105302000E9004A2B0130F8
:1002F0008C317A248031003A03197F2980294A2BD6
:100300008C31262480312000A3019930A400903044
:10031000A50000308731D62780312000A3010030AE
:10032000A4009030A50001308731D62780310830F5
:100330002000AC007908AE007808AD0000308531AF
:100340003125803108302000C2006708C4006608EB
:10035000C30001308331FB23803100308C31102405
:100360008031B428F4302000AC000130AD00003002
:100370008E310A268031003A0319BF29C029F0299D
:100380007708031DC429C529F0290630F70078082D
:10039000643E2100CC000030793DCD0026304D0276
:1003A000AD3003194C020318D629D729DE29780865
:1003B000643EF8000030793DF900E229AC30F800E5
:1003C0002630F90008302000AC007908AE0078082B
:1003D000AD000030853131258031F601F60A4A2B17
:1003E00000308C31BD248031003A031DF829F929F1
:1003F0004A2B7608031DFD29FE29192A78080A3E92
:100400002100CC000030793DCD0026304D02AD30CA
:1004100003194C0203180D2A0E2A152A78080A3EE1
:10042000F8000030793DF900192AAC30F800263088
:10043000F90008302000AC007908AE007808AD0063
:1004400000308531312580312D29F4302000AC0079
:100450000130AD0002308E310A268031003A031996
:10046000322A332A582A7708031D372A382A582A6D
:100470000630F7000030790264300319780203185F
:10048000422A432A462AF801F9014C2A78089C3E60
:10049000F800FF30793DF90008302000AC00790801
:1004A000AE007808AD000030853131258031ED296E
:1004B00002308C31BD248031003A031D602A612A4C
:1004C0004A2B7608031D652A662A782A00307902AD
:1004D0000A300319780203186E2A6F2A722AF8016B
:1004E000F901782A7808F63EF800FF30793DF900E6
:1004F00008302000AC007908AE007808AD0000306C
:100500008531312580312D2979082000A500780812
:10051000A40064087802A0006508793BA1000C30B3
:10052000A2000030A3008D315A258031200021081F
:10053000A7002008A60087319927803120002408D1
:10054000023EEA006A08F400FF30F50000308D3109
:10055000BE258031200064086504031DB02AB12A3D
:10056000B82A0130E6070030E73D8C314224803163
:10057000003020006502053003196402031CC12A03
:10058000C22ACB2A01308C317A248031003A0319F7
:10059000CA2ACB2A4A2B2000A3019930A40090300C
:1005A000A50000308731D62780312000A30100301C
:1005B000A4009030A50001308731D6278031083063
:1005C0002000AC007908AE007808AD00003085311D
:1005D0003125803108302000C2006708C400660859
:1005E000C30001308331FB23803100308C31102473
:1005F0008031B42802308C317A248031003A031DD6
:10060000022B032B0C2B00308C317A248031003AE2
:1006100003190B2B0C2B0F2B2000E9014A2B013067
:100620008C317A248031003A0319172B182B4A2B6E
:100630002000E601E701F801F9018C312624803120
:100640008C31422480312000E9014A2B20006908C6
:100650002100CC00CD014D08003A0319302B0C2BA2
:100660004C08003A03194F28013A03196B28033A42
:100670000319B928013A03195B29073A0319B2296A
:10068000013A0319252A033A0319842A013A031966
:10069000FA2A0C2B080021008E0100302000A30054
:1006A0000030A2000030A1001930A0008F318E2749
:1006B00083310F302000AD002D088E05F830AD00DD
:1006C0002D088E050F30AD002D088E053030AD00A1
:1006D0002D088E048E150030A3000030A2000030DB
:1006E000A1000130A0008F318E278331F730200028
:1006F000AD002D088E050030A3000030A2000030B0
:10070000A1000130A0008F318E2783310F302000EF
:10071000AD002D088E053030AD002D088E048E15ED
:100720000030A3000030A2000030A1000130A00082
:100730008F318E278331F7302000AD002D088E05D4
:100740000030A3000030A2000030A1000130A00062
:100750008F318E2783310F302000AD002D088E059C
:100760003030AD002D088E048E150030A30000300F
:10077000A2000030A1000130A0008F318E2783310C
:10078000F7302000AD002D088E050030A3000030AA
:10079000A2000030A1000130A0008F318E278331EC
:1007A0000F302000AD002D088E058E168E150030FE
:1007B000A3000030A2000030A1000130A0008F3162
:1007C0008E278331F7302000AD002D088E050030D4
:1007D000A3000030A2000030A1000130A0008F3142
:1007E0008E27833128308631642683310C30863160
:1007F0006426833108002000C700C801470801397A
:10080000C500C6014508E0004608E10042080F396E
:10081000C500C6014508DE004608DF004308440461
:10082000031D132C142C192C30308C31D42483311B
:10083000A32C0A30C9004908FF3EAE00FF30031860
:100840000030AF000A30AC000030AD0087315727D0
:10085000833120002F08B8002E08B7002D08B600FD
:100860002C08B5004308B9004408BA00BB01BC011C
:1008700086310926833120003808370436043504D0
:100880000319432C442C6D2CC801C80A4908FF3EAB
:10089000AE00FF3003180030AF000A30AC0000306B
:1008A000AD0087315727833120002F08B8002E086C
:1008B000B7002D08B6002C08B5004308B90044085D
:1008C000BA00BB01BC0186310926833120003508FE
:1008D000303E8C31D4248331762C48080319712C96
:1008E000722C762C30308C31D4248331200049088E
:1008F000FF3EAE00FF3003180030AF000A30AC00FE
:100900000030AD0087315727833120002F08B80011
:100910002E08B7002D08B6002C08B5004308B90012
:100920004408BA00BB01BC0187310C278331200089
:100930003608C4003508C3000130C9024908031D48
:10094000A22CA32C1B2C0800F3017308C83E8600C0
:10095000870173085A3E84008501000881007308EE
:100960005A3E860087017308C43E84008501000852
:1009700020000C0581007308C83E860087017308BB
:100980005A3E8400850100080106031DC82CC92CAD
:10099000262D7308C03E8600870173085A3E8400E6
:1009A0008501000881007308C03E860087010108A8
:1009B000031DDB2CDC2CFE2C73354A3E86008701A0
:1009C000403FF000413FF10000307102C830031990
:1009D00070020318EC2CED2CF72C73354A3E860080
:1009E00087010130810741310318810A262D7308E0
:1009F000523E860087018101810A262DF20173355E
:100A00004A3E86008701160001040319082D092DAE
:100A1000142D7308523E860087010108031D112D15
:100A2000122D142DF201F20A7308563E860087013A
:100A30007208810073354A3E860087010030C03F4E
:100A4000C13F7308523E8600870181010130F000EA
:100A50007008F30704307302031C2F2D302DA52CD2
:100A600008002000B10031080139AF00B0012F08A3
:100A7000E0003008E1002C080F39AF00B0012F086A
:100A8000DE003008DF006430A4000030A5002E082E
:100A9000A7002D08A600873199278531200024085A
:100AA000B3000A30A4000030A5002E08A3002D08D2
:100AB000A2006430A0000030A1008F3123278531CF
:100AC00020002108A7002008A6008731992785313A
:100AD00020002408B2000A303302031C702D712D4F
:100AE000852D0A30A0000030A1003308AF00B0010E
:100AF0002F08A2003008A3008531A92585312000E8
:100B00002008303E8C31D42485310A302000A000EA
:100B10000030A1003308AF00B0012F08A200300858
:100B2000A3008631B826853120002008303E8C3164
:100B3000D42485312E308C31D424853120003208E4
:100B4000303E8C31D424853120308C31D424853111
:100B500008002000A501A11FAE2DAF2DB62DA009C4
:100B6000A109A00A0319A10AA501A50AA31FB92D6D
:100B7000BA2DC32DA209A309A20A0319A30A0130A1
:100B8000F4007408A506A601A70120082104031992
:100B9000CA2DCB2DFA2DA401A40AD72D0130A035E2
:100BA000A10D890BCF2D0130F4007408A407A11FFB
:100BB000DA2DDB2DCE2D0130A635A70D890BDC2DCE
:100BC00021082302031DE62D20082202031CE92D23
:100BD000EA2DEF2D2008A2022108A33B26140130A4
:100BE000A136A00C890BF02D0130A402031DF92DB4
:100BF000FA2DDB2D25080319FE2DFF2D042EA60945
:100C0000A709A60A0319A70A2708A1002608A00019
:100C1000080000302000C0000030BF000030BE00DF
:100C20000030BD0038083704360435040319192E86
:100C30001A2E5B2EC101C10A282E0130B535B60D22
:100C4000B70DB80D890B1E2E0130F5007508C107D0
:100C5000B81F2B2E2C2E1D2E0130BD35BE0DBF0D05
:100C6000C00D890B2D2E38083C02031D412E37087C
:100C70003B02031D412E36083A02031D412E350862
:100C80003902031C442E452E4E2E3508B902360873
:100C9000BA3B3708BB3B3808BC3B3D140130B83683
:100CA000B70CB60CB50C890B4F2E0130C102031DD9
:100CB0005A2E5B2E2C2E4008B8003F08B7003E0885
:100CC000B6003D08B50008002000AC000F30F4006D
:100CD00074088E052C08F039F40074088E048E1503
:100CE0000030A3000030A2000030A1000130A000BD
:100CF0008F318E278631F730F400740820008E057E
:100D00000030A3000030A2000030A1000130A0009C
:100D10008F318E2786310F30F400740820008E0545
:100D20002C08F4000330F435FF3E031D932E743578
:100D3000F50075088E048E150030A3000030A20067
:100D40000030A1000130A0008F318E278631F730AE
:100D5000F400740820008E050030A3000030A200CB
:100D60000030A1000130A0008F318E2786310800AD
:100D70002000A501A31FBD2EBE2EC52EA209A309CA
:100D8000A20A0319A30AA501A50AA11FC82EC92EEC
:100D9000CE2EA009A109A00A0319A10A2008210446
:100DA0000319D32ED42EFD2EA401A40AE02E013067
:100DB000A035A10D890BD82E0130F4007408A407CA
:100DC000A11FE32EE42ED72E21082302031DEA2EB5
:100DD00020082202031CED2EEE2EF22E2008A20285
:100DE0002108A33B0130A136A00C890BF32E013062
:100DF000A402031DFC2EFD2EE42E25080319012F4D
:100E0000022F072FA209A309A20A0319A30A230884
:100E1000A1002208A000080020003808370436048A
:100E200035040319142F152F4E2FBD01BD0A232F92
:100E30000130B535B60DB70DB80D890B192F01303E
:100E4000F5007508BD07B81F262F272F182F380863
:100E50003C02031D352F37083B02031D352F360892
:100E60003A02031D352F35083902031C382F392F5C
:100E7000412F3508B9023608BA3B3708BB3B380862
:100E8000BC3B0130B836B70CB60CB50C890B422F01
:100E90000130BD02031D4D2F4E2F272F3C08B800F7
:100EA0003B08B7003A08B6003908B5000800003022
:100EB0002000B4000030B3000030B2000130B100B7
:100EC000B001842F20002C08A0002D08A100890D5E
:100ED000893B8909A200A3003408A7003308A600B3
:100EE0003208A5003108A4008E31EF26873120009A
:100EF0002308B4002208B3002108B2002008B10082
:100F00000130F4007408B0072F08803A803C031DBC
:100F10008B2F2E083002031C8E2F8F2F622F200064
:100F20003408AF003308AE003208AD003108AC0021
:100F300008002000A901AA01240825040319A12FF3
:100F4000A22FD12FAB01AB0AAE2F0130A435A50DD6
:100F5000890BA62F0130A8002808AB07A51FB12FC9
:100F6000B22FA52F0130A935AA0D890BB32F250863
:100F70002702031DBD2F24082602031CC02FC12FEA
:100F8000C62F2408A6022508A73B29140130A53640
:100F9000A40C890BC72F0130AB02031DD02FD12F1A
:100FA000B22F2A08A5002908A4000800F50075083A
:100FB00001392000A600A7012608E0002708E1006B
:100FC00023080F39A600A7012608DE002708DF0046
:100FD000F62F240884002508850000088C31D424CD
:100FE000873101302000A4070030A53D240884008B
:100FF000250885001200031DFE2FFF2FE92F080092
:1017D200013400342000181008008B170B17080082
:1017E2002000EA01E901F6010800640080010131EC
:1017F200890BF72B0034FE0012001E00FE0BFD2B9E
:10180200003420006C0897006B089600181408003A
:101812002000A80028088D313C258C310800F400F6
:101822007408031D152C182C20008C161A2C20006D
:101832008C12080023000C108C100C110F302100A8
:101842008C00FF3020008C0008007808F400003083
:101852008E318F268C317908F40001308E318F263B
:101862008C310800F40004307402031C392C3A2C29
:101872003C2C0030412C7408523E8600870101083E
:10188200080020006608F40002308E318F268C3169
:1018920020006708F40003308E318F268C31080057
:1018A200200018107409EB007509EC006C08970011
:1018B2006B0896003F3098051812981211102100FB
:1018C20011142000181408000A302000A40000306F
:1018D200A5002D08A7002C08A600873199278C3176
:1018E20020002508EE002408ED00E201E301E801F2
:1018F2000800F5007508563E860087010108F400CD
:1019020004307502031C862C872C892C00308F2C06
:101912007508563E8600870181017408080003306D
:101922008D3105258C312000A300A4012308A400D9
:10193200A30102308D3105258C312000A600230839
:101942002604E6002408E700080001302000E20730
:101952000030E33D6E086302031DB12C6D08620284
:10196200031CB42CB52CB92CE201E301E801E80A0E
:101972008431A4248C3108002000A000043020020D
:10198200031CC42CC52CC72C0030D32C20354A3E56
:101992008600870116000104031DD02CD22C0130D1
:1019A200D32C00300800F40020006008A0000430AE
:1019B200A035890BD92CA0302007A1005E08210791
:1019C200A200220886008701740881000130DE0728
:1019D2000030DF3D08002000A5000F30F50075083B
:1019E2008E052508F50075088E048E1501308E319E
:1019F20062268C31F730F500750820008E05013023
:101A02008E3162268C310800F400640023009518A0
:101A12000B2D0C2D062D74082000A000A10120081A
:101A22002300910020002108230092003F30200073
:101A3200A2002208230095051514130808002000AF
:101A4200A700FB30A60026088E0501308E316226E3
:101A52008D31200027088C31EC248D31200027089D
:101A6200A6000330A635FF3E031D332D26358C31EB
:101A7200EC248D3108002000A7000E1501308E31B4
:101A820062268D31200027088C31EC248D31200014
:101A92002708A6000330A635FF3E031D4C2D263530
:101AA2008C31EC248D31FB302000A60026088E05F7
:101AB2000800F401F5012000201C602D612D652D28
:101AC2002208F4072308F53D0130A235A30D890B46
:101AD200662D0130A136A00C890B6B2D2008210444
:101AE200031D742D752D5C2D7508A1007408A000CE
:101AF20008002000AB00832D8030AC00932DC03055
:101B0200AC00932D2B08A900AA012A08003A031958
:101B12008B2D932D2908003A03197D2D013A0319C3
:101B2200802D932D2C082807AC002C088D31202500
:101B32008D31080001308D3105258D312000A30043
:101B4200A4012308A400A30100308D3105258D31A5
:101B52002000A60023082604F8002408F9002630F5
:101B62007902AD3003197802031CB82DB92DBD2DB1
:101B7200AC30F8002630F90008002000A30023084A
:101B82000139A000A1012008E0002108E100740849
:101B92000F39A000A1012008DE002108DF00600843
:101BA200A0000430A035890BD32DA0302007A1005E
:101BB2005E082107A20022088600870175088100BD
:101BC20008002034203420342034203420342034BF
:101BD2002034203420342034203420342034203463
:101BE2002034203420342034203420342034203453
:101BF2002034203420342034203420342034203443
:101C02002034013401340134013401340234043407
:101C120008342000B00004303002031C112E122EB2
:101C2200142E0030342E30354A3E86008701403F64
:101C3200AE00413FAF000A30A4000030A5002D08DD
:101C4200A7002C08A600873199278E3120002F0883
:101C52002502031D2E2E2E082402031C312E332EA4
:101C62000130342E003008002000A000A101A201A2
:101C7200542E2000A301A40101302000A30700304C
:101C8200A43D2408803AF40080307402031D4B2ED8
:101C920001302302031C4E2E4F2E3D2E0130200018
:101CA200A1070030A23D2208803AF400803074027D
:101CB200031D5D2E20082102031C602E612E3A2E88
:101CC20008002000A000A101A201812E2000A30192
:101CD200A40101302000A3070030A43D2408803A6B
:101CE200F40080307402031D782E01302302031C9D
:101CF2007B2E7C2E6A2E01302000A1070030A23DEF
:101D02002208803AF40080307402031D8A2E2008D3
:101D12002102031C8D2E8E2E672E0800F500230053
:101D22009518942E952E902E75082000A000A101E2
:101D3200200823009100200021082300920074084B
:101D420093003F302000A0002008230095052000CA
:101D520003108B1FAD2EAE2EAF2E03148B13230058
:101D6200151555309600AA309600951415112000CD
:101D7200031CBC2EBD2EBE2E8B1708002100190895
:101D820087396838990023000E108E100E118E11BB
:101D92000E138E1321008E018B31EE238E31103003
:101DA200F4002730F5008C3151248E318C311B2404
:101DB2008E3183314B238E318B31F1238E31323090
:101DC2002000AC000030AD008C3165248E318D31A5
:101DD2009B258E318C3190248E31080000302000FA
:101DE200AB000030AA000030A9000030A800201C7F
:101DF200FB2EFC2E042F2408A8072508A93D26083F
:101E0200AA3D2708AB3D0130A435A50DA60DA70DAF
:101E1200890B052F0130A336A20CA10CA00C890B53
:101E22000C2F2308220421042004031D192F1A2F2A
:101E3200F82E2B08A3002A08A2002908A1002808CE
:101E4200A00008002000200821040319292F2A2FAE
:101E5200532FF501F50A362F0130A035A10D890B5C
:101E62002E2F0130F4007408F507A11F392F3A2FE5
:101E72002D2F21082302031D402F20082202031CBC
:101E8200432F442F482F2008A2022108A33B0130F0
:101E9200A136A00C890B492F0130F502031D522FE8
:101EA200532F3A2F2308A1002208A0000800200087
:101EB200A80100308D317A258F312000AE012E0825
:101EC200A03E8600870101088C3109248F31013040
:101ED2002000AD002D08AE0710302E02031C722F19
:101EE200732F602FA80101308D317A258F312000A8
:101EF200AE012E08B03E8600870101088C3109240C
:101F02008F3101302000AD002D08AE0710302E02B7
:101F1200031C8C2F8D2F7A2F08002000A801A90105
:101F2200AB2FAA01AB0101302000AA070030AB3D64
:101F32002B08803AA40080302402031DA22FA03077
:101F42002A02031CA52FA62F942F01302000A807D8
:101F52000030A93D2808A4002908A5000030A51BCF
:101F6200FF30A600A70023082702031DC22F220864
:101F72002602031DC22F21082502031DC22F20089D
:101F82002402031CC52FC62F922F08008E31BF26B4
:101F92008F312000A3017730A4009030A5000030DB
:101FA2008731D6278F318F3158278F31D0308E31FC
:101FB20035268F3180314E208F3120006808031979
:101FC200E32FE42FDB2FE8018F3158278F310030C8
:101FD20020006502053003196402031CF12FF22F61
:101FE200F62F0530E4020030E53B77080319FA2F9B
:101FF200FB2FDB2F0130F702DB2F80311D2843340A
:1020020055345034203420343A34203420342034AF
:10201200203420342034203420342034203400343E
:10202200203420342034203420345B34533454346C
:102032004F3450345D342034203420342034203462
:1020420000342034443465346C346534743465347B
:10205200203441346C346C3420343F342034203406
:102062002034003420342034203420345F342034AF
:102072004D3441344E34553441344C3420345F3481
:1020820020342034003420347C3420342034203472
:10209200203420342034203420342034203420349E
:1020A20020347C34203400345B342B345D342034CF
:1020B200203420345B344F344B345D3420342034AC
:1020C20020345B342D345D3400345B344E345D3463
:1020D2002034203420345B344F344B345D3420348C
:1020E200203420345B344E345D3400345634693449
:1020F200653474347334743461347234203420346B
:1021020043346F34663466346534653400342034C5
:10211200203420342034203420342034203420341D
:1021220020342034203420342034203473340034DA
:102132004134553454344F3420343A34203420342A
:10214200203420342034203420342034203473349A
:02215200003457
:020000040001F9
:08000000FF3FFF3FFF3FFF3F00
:04000E00A439FF1FF3
:00000001FF
