:020000001028C6
:10000800FE00030EF5000408F6000A08F700831244
:1000180003137F08F800BA2A1128793084007E304B
:10002800DE238313203084003530DE235323B500CC
:100038005423B6005523B7005623B8005723B900F8
:100048005823BA005923BB005A23BC005B23BD00C8
:100058005C23BE005D23BF005E23C0005F23C10098
:100068006023C2006123C3006223C4006323C50068
:100078006423C6006523C7006623C8006723C90038
:1000880083014628312283120313D9010F29023034
:100098000123003A031D082983120313B301B30A8D
:1000A8000829300865220030C02300301D23003A9B
:1000B80003197A28013083120313D8005808B007AF
:1000C800643030020318B00130086522831203132C
:1000D8003008D8005808CA00310839236430831220
:1000E8000313CA000030CB009122082901301D23D8
:1000F800003A03199928013083120313B0026430BF
:1001080030020318B0013008652283120313300847
:10011800D8005808CA003108392364308312031301
:10012800CA000030CB009122082902300123003A8E
:10013800031DBE2808290230A323003A0319B0285A
:1001480083120313B4010A30D8005808DA000330C8
:10015800D8005808B3000829E83083120313D300E5
:100168000330D400682383120313D9010230D80066
:100178005808B30002301D23003A031908299F28A4
:100188000130C02383120313590865228312031315
:1001980032080319D4280130D8005808D907B20109
:1001A800300859020318B30100295A08652283123E
:1001B800031332080319FB283408031DED28B40182
:1001C800B40A0130C023103083120313D300273040
:1001D800F92883120313B4010130DA020030C02376
:1001E800D03083120313D3000730D400682383125E
:1001F80003135A080319B30102300123003A031903
:10020800082983120313B301033083120313CA00AE
:100218000030CB009122831203133308840004308A
:1002280004020318082903308A00EE30040782000C
:100238000829F30103307302031808007308793E94
:1002480084000008F0007308263E840070088313B9
:1002580080007308433E84000008831203130505D9
:10026800F0007308793E8400700880007308263E09
:1002780084000008F0007308793E840000087006C6
:10028800031D84297308793E84000008F000730870
:10029800403E8400700880007308403E84000008D7
:1002A800031D78297308F0007007203E84000008B9
:1002B800F100840A0008F20000307202C830031905
:1002C8007102031872297308F0007007203E840039
:1002D80001308007840A0318800A84297308293E9C
:1002E80084008001800A84297308F0007007203E8A
:1002F80084008001840A80017308293E84008001FB
:100308000130F0007008F3071E2983120313D0018F
:10031800CB1F9529CA09CB09CA0A0319CB0AD001F0
:10032800D00ACD1FA029CC09CD09CC0A0319CD0AC2
:100338000130CE004E08D006D101D2014A084B0444
:100348000319D729CF01CF0ACB1BB62901300310D7
:10035800CA0DCB0DFF3E031DAB290130CE004E0860
:10036800CF07A82901300310D10DD20DFF3E031D80
:10037800B7294B084D02031DC3294A084C02031C28
:10038800CC294A08CC024B08031CCD03CD025114DA
:1003980001300310CB0CCA0CFF3E031DCD290130E0
:1003A800CF02031DB62950080319DF29D109D20944
:1003B800D10A0319D20A5208CB005108CA00080012
:1003C80083120313D001CD1FF029CC09CD09CC0A23
:1003D8000319CD0AD001D00ACB1FF729CA09CB09C6
:1003E800CA0A0319CB0A4A084B040319242ACF0165
:1003F800CF0ACB1B0B2A01300310CA0DCB0DFF3ED1
:10040800031D002A0130CE004E08CF07FD294B08F6
:100418004D02031D112A4A084C02031C192A4A08D6
:10042800CC024B08031CCD03CD0201300310CB0CCA
:10043800CA0CFF3E031D1A2A0130CF02031D0B2AE6
:10044800500803192C2ACC09CD09CC0A0319CD0A66
:100458004D08CB004C08CA0008000730831203136C
:100468009F0034308316031385008601FF30831202
:1004780003138500FF3086000A30D7005708DA00DA
:10048800B3010030C023103083120313CA00273091
:10049800CB00DE22E83083120313D3000330D400EC
:1004A8006823831203133108CA2383120313D70066
:1004B8005708B000643030020318B00130086522D4
:1004C800080083120313D60064305602031808008C
:1004D8000A30CA000030CB005608D300D4015308B4
:1004E800CC005408CD008921831203134A08D50093
:1004F8005508C6000A30CA000030CB005608D300A1
:10050800D4015308CC005408CD00E421831203130E
:100518004A08D5005508C700080083120313CC0108
:10052800CD014B084D02031D9B2A4A084C020318B3
:100538000800CE01CF0100304F028D3003194E0262
:100548000318B32A0130CE070318CF0A0030CF07AB
:1005580000304F028D3003194E02031CA62A0130C9
:10056800CC070318CD0A0030CD07952A0C1CD12AD8
:10057800831603130C1CD12AF223831203130C10C5
:10058800E6237D231D2102307D020318FD017D082D
:10059800D4230130F4007408FD077808831203138C
:1005A800FF0077088A0076088400750E8300FE0E27
:1005B8007E0E09008312031310104A09CC004B0960
:1005C800CD00CC0A0319CD0A4C08FF3EAE004D08F9
:1005D8000318013EFF3EAF002F088F002E088E0043
:1005E8009010101290120C10831603130C148B1712
:1005F8000B17831203131014080083120313CD0082
:1006080003304D02031C0A2B003008004D08CA00B5
:100618004A07203E840083130008CB00840A0008A0
:10062800CC004B034C04031D1B2B01300800003089
:10063800080083120313CD0003304D02031C262B40
:10064800003008004D08CA004A07203E8400831382
:100658000008CB00840A0008CC004B084C0403199E
:10066800372B013008000030080083120313CB0039
:100678004B08831603139B00831203134A0883163F
:1006880003139A001C158B1355309D00AA309D004A
:100698009C148B1783128C1F4E2B8C130800083464
:1006A8005E34413442341634223420344E3400341B
:1006B80002347734013401340134103420340434E2
:1006C80001340234013400340A3083120313CA009F
:1006D8000030CB005408CD005308CC008921831288
:1006E80003134B08C9004A08C800AC01AD01B201A8
:1006F8000800013083120313AC070318AD0A003059
:10070800AD0749082D02031D8B2B48082C02031C3A
:100718000800AC01AD01B201B20A0800F00070088F
:10072800031D9B2B83120313051485130800700304
:10073800031D080083120313051085170800831290
:100748000313CA0003304A02031CAC2BFF30080015
:100758004A08293E8400831300080800F0000B3083
:100768007002031808007008353E840083130008DF
:10077800831203138600080083120313CA004A0871
:10078800031DC82B85110800851508008312031363
:10079800CA004A08831603139B001C141A08080091
:1007A800F100710892237108463E84008313000803
:1007B800B223080064008001840A04060319003487
:1007C8000406DF2B831203132F088F002E088E00D8
:1007D800101408004B285528C428D928831203135D
:0407E80010100800E5
:08400000FF3FFF3FFF3FFF3FC0
:02400E0018FF99
:00000001FF
