:020000001028C6
:10000800FE00030EF0000408F1000A08F200831253
:1000180003137F08F300782B1128F701F801F90181
:10002800D001D101D201D301D401D50183134230CB
:10003800FD000230FE00E330FF0020308400ED2395
:1000480083019D2A003083120313C5000030C400C9
:100058000030C3001930C20074210F30831203131B
:10006800CE004E088605F830CE004E0886050F30C3
:10007800CE004E0886053030CE004E088604861520
:100088000030C5000030C4000030C3000130C20099
:100098007421F73083120313CE004E088605003012
:1000A800C5000030C4000030C3000130C200742114
:1000B8000F3083120313CE004E0886053030CE0071
:1000C8004E08860486150030C5000030C400003094
:1000D800C3000130C2007421F73083120313CE002D
:1000E8004E0886050030C5000030C4000030C3004B
:1000F8000130C20074210F3083120313CE004E0862
:1001080086053030CE004E08860486150030C500BE
:100118000030C4000030C3000130C2007421F73041
:1001280083120313CE004E0886050030C500003048
:10013800C4000030C3000130C20074210F308312A4
:100148000313CE004E088605861686150030C500B6
:100158000030C4000030C3000130C2007421F73001
:1001680083120313CE004E0886050030C500003008
:10017800C4000030C3000130C2007421283022219D
:100188000C302221080083120313C701C31FD32890
:10019800C209C309C20A0319C30AC701C70AC51F8E
:1001A800DE28C409C509C40A0319C50A0130F400C8
:1001B8007408C706C801C901420843040319152970
:1001C800C601C60AC31BF42801300310C20DC30DB3
:1001D800FF3E031DE9280130F4007408C607E6282D
:1001E80001300310C80DC90DFF3E031DF528430853
:1001F8004502031D012942084402031C0A2942083A
:10020800C4024308031CC503C50248140130031087
:10021800C30CC20CFF3E031D0B290130C602031D8F
:10022800F428470803191D29C809C909C80A031968
:10023800C90A4908C3004808C2000800F6000F3080
:10024800F40074088312031386057608F039F40065
:100258007408860486150030C5000030C4000030DC
:10026800C3000130C2007421F730F400740883120F
:10027800031386050030C5000030C4000030C300F9
:100288000130C20074210F30F40074088312031384
:1002980086057608F40003300310F40DFF3E031DB5
:1002A80050290310740DF500750886048615003072
:1002B800C5000030C4000030C3000130C200742102
:1002C800F730F40074088312031386050030C50064
:1002D8000030C4000030C3000130C200742108009F
:1002E80083120313CA01CB014A08C6004B08C70092
:1002F8000030C71BFF30C800C90045084902031D6C
:100308008F2944084802031D8F2943084702031D0B
:100318008F294208460203180800CC01CD014D0878
:10032800803AFF0080307F02031D9C29A0304C02D8
:100338000318B129013083120313CC070318CD0A1F
:100348000030CD074D08803AFF0080307F02031D42
:10035800AF29A0304C02031C9E29013083120313DD
:10036800CA070318CB0A0030CB0778298312031376
:10037800C200C301C4014408803AF400803074020A
:10038800031DC829420843020318080083120313F7
:10039800C501C6014608803AFF0080307F02031D70
:1003A800D729013045020318EC29013083120313C1
:1003B800C5070318C60A0030C6074608803AFF007A
:1003C80080307F02031DEA2901304502031CD92928
:1003D800013083120313C3070318C40A0030C4078B
:1003E800BF2983120313C901003042238312031368
:1003F800CE0110304E020318112A4E08203E840008
:10040800831300080024013083120313CD004D0824
:10041800CE0710304E02031C012AC90101304223C5
:1004280083120313CE0110304E02031808004E0841
:10043800303E840083130008002401308312031324
:10044800CD004D08CE07172AF60076080139831229
:100458000313C200C3014208F7004308F8007408F8
:100468000F39C200C3014208D0004308D100750803
:10047800C2007708C30004300310C30DFF3E031DFC
:10048800402A20304307C40050084407C5004508E7
:100498008400420883138000080002308A000408A0
:1004A800840A82070034783469346E342034633423
:1004B800683461346F342034623461346E342034EB
:1004C8006E346834613400345434753469342034FB
:1004D800743465346E3420346C34613420344E34D2
:1004E8006734683469346134003483120313C800F4
:1004F80048080139F500F6017508F7007608F80094
:1005080046080F39F500F6017508D0007608D100C5
:10051800470884005122003A03190800470884005C
:10052800512205230130F500750883120313C7070C
:100538008C2A9123F401F40A613083120313CF004B
:100548004F08F5000030282283120313C60101303A
:10055800CF004F08C7000030792283120313C60169
:100568001230CF004F08C7000130792279080319EB
:10057800BA2AF901F521BA2A831203131010740953
:10058800C2007509C300C20A0319C30A4208FF3E24
:10059800D40043080318013EFF3ED50055088F00DC
:1005A80054088E009010101290120C10831603132A
:1005B8000C148B170B178312031310140800303414
:1005C80031343234333434343534363437343834DF
:1005D80039343034313432343334343435343634D5
:1005E80037343834393430343134323433343434C1
:1005F80035343634373438343934303431340134DE
:100608000034F400740883120313C2007708C3008F
:1006180004300310C30DFF3E031D0D2B203043078C
:10062800C40050084407C5004508840042088313E5
:1006380080000130D0070318D10A0030D107080024
:1006480083120313C80006150130BA21831203135D
:100658004808A823831203134808C700033003106F
:10066800C70DFF3E031D332B0310470DA823FB3096
:1006780083120313C7004708860508008312031373
:10068800CB004D2B8030492BC030CA004A08CC0023
:10069800552B4B08003A0319462B013A0319482BEE
:1006A800552B49084C07CA004A08CC004C085D2362
:1006B800080083120313C800FB30C70047088605EB
:1006C8000130BA21831203134808A82383120313A5
:1006D8004808C70003300310C70DFF3E031D6F2BEA
:1006E8000310470DA82308000C1C842B8316031342
:1006F8000C1C842B0624831203130C10F823D42318
:10070800730883120313FF0072088A0071088400BB
:10071800700E8300FE0E7E0E09000730831203134D
:100728009F00831603138E15860126200A24103095
:10073800F4002730F500C022323083120313CA00B8
:100748000030CB00BF230800F6000F30F500750815
:100758008312031386057608F50075088604861546
:100768000130BA21F730F5007508831203138605A6
:100778000130BA2108000A3083120313C200003086
:10078800C3004B08C5004A08C400C72083120313DE
:100798004308C1004208C000D201D301F901080092
:1007A800013083120313D2070318D30A0030D3078A
:1007B80041085302031DE22B40085202031C0800A3
:1007C800D201D301F901F90A08007E088A007F08DE
:1007D8008200E9238000840A04087D060319003496
:1007E800FF0A0319FE0AED2B8312031355088F0025
:1007F80054088E001014080083120313C900490816
:100808002423080083120313101008008B170B17FA
:020818000800D6
:08400000FF3FFF3FFF3FFF3FC0
:02400E0018FF99
:00000001FF
